{
  "_format": "hh-sol-artifact-1",
  "contractName": "MelodyRegistry",
  "sourceName": "contracts/MelodyRegistry.sol",
  "abi": [
    {
      "inputs": [
        {
          "internalType": "address",
          "name": "_verifierAddress",
          "type": "address"
        }
      ],
      "stateMutability": "nonpayable",
      "type": "constructor"
    },
    {
      "inputs": [
        {
          "internalType": "address",
          "name": "owner",
          "type": "address"
        }
      ],
      "name": "OwnableInvalidOwner",
      "type": "error"
    },
    {
      "inputs": [
        {
          "internalType": "address",
          "name": "account",
          "type": "address"
        }
      ],
      "name": "OwnableUnauthorizedAccount",
      "type": "error"
    },
    {
      "anonymous": false,
      "inputs": [
        {
          "indexed": true,
          "internalType": "uint256",
          "name": "melodyHash",
          "type": "uint256"
        },
        {
          "indexed": true,
          "internalType": "address",
          "name": "owner",
          "type": "address"
        },
        {
          "indexed": false,
          "internalType": "uint256",
          "name": "timestamp",
          "type": "uint256"
        }
      ],
      "name": "MelodyRegistered",
      "type": "event"
    },
    {
      "anonymous": false,
      "inputs": [
        {
          "indexed": true,
          "internalType": "uint256",
          "name": "melodyHash",
          "type": "uint256"
        },
        {
          "indexed": true,
          "internalType": "address",
          "name": "previousOwner",
          "type": "address"
        },
        {
          "indexed": true,
          "internalType": "address",
          "name": "newOwner",
          "type": "address"
        }
      ],
      "name": "MelodyTransferred",
      "type": "event"
    },
    {
      "anonymous": false,
      "inputs": [
        {
          "indexed": true,
          "internalType": "address",
          "name": "previousOwner",
          "type": "address"
        },
        {
          "indexed": true,
          "internalType": "address",
          "name": "newOwner",
          "type": "address"
        }
      ],
      "name": "OwnershipTransferred",
      "type": "event"
    },
    {
      "inputs": [
        {
          "internalType": "address",
          "name": "owner",
          "type": "address"
        }
      ],
      "name": "getMelodyCount",
      "outputs": [
        {
          "internalType": "uint256",
          "name": "",
          "type": "uint256"
        }
      ],
      "stateMutability": "view",
      "type": "function"
    },
    {
      "inputs": [
        {
          "internalType": "uint256",
          "name": "melodyHash",
          "type": "uint256"
        }
      ],
      "name": "getMelodyOwner",
      "outputs": [
        {
          "internalType": "address",
          "name": "",
          "type": "address"
        }
      ],
      "stateMutability": "view",
      "type": "function"
    },
    {
      "inputs": [
        {
          "internalType": "uint256",
          "name": "melodyHash",
          "type": "uint256"
        }
      ],
      "name": "getRegistrationTime",
      "outputs": [
        {
          "internalType": "uint256",
          "name": "",
          "type": "uint256"
        }
      ],
      "stateMutability": "view",
      "type": "function"
    },
    {
      "inputs": [
        {
          "internalType": "uint256",
          "name": "melodyHash",
          "type": "uint256"
        }
      ],
      "name": "isMelodyRegistered",
      "outputs": [
        {
          "internalType": "bool",
          "name": "",
          "type": "bool"
        }
      ],
      "stateMutability": "view",
      "type": "function"
    },
    {
      "inputs": [
        {
          "internalType": "uint256",
          "name": "",
          "type": "uint256"
        }
      ],
      "name": "melodyOwners",
      "outputs": [
        {
          "internalType": "address",
          "name": "",
          "type": "address"
        }
      ],
      "stateMutability": "view",
      "type": "function"
    },
    {
      "inputs": [],
      "name": "owner",
      "outputs": [
        {
          "internalType": "address",
          "name": "",
          "type": "address"
        }
      ],
      "stateMutability": "view",
      "type": "function"
    },
    {
      "inputs": [
        {
          "internalType": "uint256[2]",
          "name": "a",
          "type": "uint256[2]"
        },
        {
          "internalType": "uint256[2][2]",
          "name": "b",
          "type": "uint256[2][2]"
        },
        {
          "internalType": "uint256[2]",
          "name": "c",
          "type": "uint256[2]"
        },
        {
          "internalType": "uint256[1]",
          "name": "input",
          "type": "uint256[1]"
        }
      ],
      "name": "registerMelody",
      "outputs": [],
      "stateMutability": "nonpayable",
      "type": "function"
    },
    {
      "inputs": [
        {
          "internalType": "uint256",
          "name": "",
          "type": "uint256"
        }
      ],
      "name": "registrationTimes",
      "outputs": [
        {
          "internalType": "uint256",
          "name": "",
          "type": "uint256"
        }
      ],
      "stateMutability": "view",
      "type": "function"
    },
    {
      "inputs": [],
      "name": "renounceOwnership",
      "outputs": [],
      "stateMutability": "nonpayable",
      "type": "function"
    },
    {
      "inputs": [
        {
          "internalType": "uint256",
          "name": "melodyHash",
          "type": "uint256"
        },
        {
          "internalType": "address",
          "name": "newOwner",
          "type": "address"
        }
      ],
      "name": "transferMelody",
      "outputs": [],
      "stateMutability": "nonpayable",
      "type": "function"
    },
    {
      "inputs": [
        {
          "internalType": "address",
          "name": "newOwner",
          "type": "address"
        }
      ],
      "name": "transferOwnership",
      "outputs": [],
      "stateMutability": "nonpayable",
      "type": "function"
    },
    {
      "inputs": [
        {
          "internalType": "address",
          "name": "",
          "type": "address"
        },
        {
          "internalType": "uint256",
          "name": "",
          "type": "uint256"
        }
      ],
      "name": "userMelodies",
      "outputs": [
        {
          "internalType": "uint256",
          "name": "",
          "type": "uint256"
        }
      ],
      "stateMutability": "view",
      "type": "function"
    },
    {
      "inputs": [],
      "name": "verifier",
      "outputs": [
        {
          "internalType": "contract MelodyVerifier",
          "name": "",
          "type": "address"
        }
      ],
      "stateMutability": "view",
      "type": "function"
    }
  ],
  "bytecode": "0x60806040523480156200001157600080fd5b5060405162001abf38038062001abf833981810160405281019062000037919062000235565b33600073ffffffffffffffffffffffffffffffffffffffff168173ffffffffffffffffffffffffffffffffffffffff1603620000ad5760006040517f1e4fbdf7000000000000000000000000000000000000000000000000000000008152600401620000a4919062000278565b60405180910390fd5b620000be816200010760201b60201c565b5080600160006101000a81548173ffffffffffffffffffffffffffffffffffffffff021916908373ffffffffffffffffffffffffffffffffffffffff1602179055505062000295565b60008060009054906101000a900473ffffffffffffffffffffffffffffffffffffffff169050816000806101000a81548173ffffffffffffffffffffffffffffffffffffffff021916908373ffffffffffffffffffffffffffffffffffffffff1602179055508173ffffffffffffffffffffffffffffffffffffffff168173ffffffffffffffffffffffffffffffffffffffff167f8be0079c531659141344cd1fd0a4f28419497f9722a3daafe3b4186f6b6457e060405160405180910390a35050565b600080fd5b600073ffffffffffffffffffffffffffffffffffffffff82169050919050565b6000620001fd82620001d0565b9050919050565b6200020f81620001f0565b81146200021b57600080fd5b50565b6000815190506200022f8162000204565b92915050565b6000602082840312156200024e576200024d620001cb565b5b60006200025e848285016200021e565b91505092915050565b6200027281620001f0565b82525050565b60006020820190506200028f600083018462000267565b92915050565b61181a80620002a56000396000f3fe608060405234801561001057600080fd5b50600436106100cf5760003560e01c80638da5cb5b1161008c578063c91becfb11610066578063c91becfb14610226578063d5c7ec3714610242578063de3198c814610272578063f2fde38b146102a2576100cf565b80638da5cb5b146101a8578063c5cbe444146101c6578063c6f66e44146101f6576100cf565b80631df3895b146100d45780632b7ac3f3146100f057806354fa24a21461010e57806370864bb91461013e578063715018a61461016e57806372bab78914610178575b600080fd5b6100ee60048036038101906100e99190610fa8565b6102be565b005b6100f861058a565b6040516101059190611090565b60405180910390f35b610128600480360381019061012391906110ab565b6105b0565b60405161013591906110f3565b60405180910390f35b610158600480360381019061015391906110ab565b61061c565b604051610165919061112f565b60405180910390f35b61017661064f565b005b610192600480360381019061018d91906110ab565b610663565b60405161019f9190611159565b60405180910390f35b6101b061067b565b6040516101bd919061112f565b60405180910390f35b6101e060048036038101906101db91906110ab565b6106a4565b6040516101ed919061112f565b60405180910390f35b610210600480360381019061020b91906111a0565b6106e1565b60405161021d9190611159565b60405180910390f35b610240600480360381019061023b91906111cd565b61072d565b005b61025c600480360381019061025791906110ab565b610a93565b6040516102699190611159565b60405180910390f35b61028c6004803603810190610287919061120d565b610ab0565b6040516102999190611159565b60405180910390f35b6102bc60048036038101906102b791906111a0565b610ae1565b005b6000816000600181106102d4576102d361124d565b5b60200201519050600073ffffffffffffffffffffffffffffffffffffffff166002600083815260200190815260200160002060009054906101000a900473ffffffffffffffffffffffffffffffffffffffff1673ffffffffffffffffffffffffffffffffffffffff161461037d576040517f08c379a0000000000000000000000000000000000000000000000000000000008152600401610374906112d9565b60405180910390fd5b6000600160009054906101000a900473ffffffffffffffffffffffffffffffffffffffff1673ffffffffffffffffffffffffffffffffffffffff166343753b4d878787876040518563ffffffff1660e01b81526004016103e09493929190611526565b602060405180830381865afa1580156103fd573d6000803e3d6000fd5b505050506040513d601f19601f820116820180604052508101906104219190611599565b905080610463576040517f08c379a000000000000000000000000000000000000000000000000000000000815260040161045a90611612565b60405180910390fd5b336002600084815260200190815260200160002060006101000a81548173ffffffffffffffffffffffffffffffffffffffff021916908373ffffffffffffffffffffffffffffffffffffffff160217905550426003600084815260200190815260200160002081905550600460003373ffffffffffffffffffffffffffffffffffffffff1673ffffffffffffffffffffffffffffffffffffffff1681526020019081526020016000208290806001815401808255809150506001900390600052602060002001600090919091909150553373ffffffffffffffffffffffffffffffffffffffff16827fd9eb1a241ccc23d7f0111b89a73615b6e8a0302f31b79722979e332226b3b0334260405161057a9190611159565b60405180910390a3505050505050565b600160009054906101000a900473ffffffffffffffffffffffffffffffffffffffff1681565b60008073ffffffffffffffffffffffffffffffffffffffff166002600084815260200190815260200160002060009054906101000a900473ffffffffffffffffffffffffffffffffffffffff1673ffffffffffffffffffffffffffffffffffffffff1614159050919050565b60026020528060005260406000206000915054906101000a900473ffffffffffffffffffffffffffffffffffffffff1681565b610657610b67565b6106616000610bee565b565b60036020528060005260406000206000915090505481565b60008060009054906101000a900473ffffffffffffffffffffffffffffffffffffffff16905090565b60006002600083815260200190815260200160002060009054906101000a900473ffffffffffffffffffffffffffffffffffffffff169050919050565b6000600460008373ffffffffffffffffffffffffffffffffffffffff1673ffffffffffffffffffffffffffffffffffffffff168152602001908152602001600020805490509050919050565b3373ffffffffffffffffffffffffffffffffffffffff166002600084815260200190815260200160002060009054906101000a900473ffffffffffffffffffffffffffffffffffffffff1673ffffffffffffffffffffffffffffffffffffffff16146107ce576040517f08c379a00000000000000000000000000000000000000000000000000000000081526004016107c59061167e565b60405180910390fd5b600073ffffffffffffffffffffffffffffffffffffffff168173ffffffffffffffffffffffffffffffffffffffff160361083d576040517f08c379a0000000000000000000000000000000000000000000000000000000008152600401610834906116ea565b60405180910390fd5b60006002600084815260200190815260200160002060009054906101000a900473ffffffffffffffffffffffffffffffffffffffff169050816002600085815260200190815260200160002060006101000a81548173ffffffffffffffffffffffffffffffffffffffff021916908373ffffffffffffffffffffffffffffffffffffffff160217905550600460008373ffffffffffffffffffffffffffffffffffffffff1673ffffffffffffffffffffffffffffffffffffffff1681526020019081526020016000208390806001815401808255809150506001900390600052602060002001600090919091909150556000600460008373ffffffffffffffffffffffffffffffffffffffff1673ffffffffffffffffffffffffffffffffffffffff168152602001908152602001600020905060005b8180549050811015610a3157848282815481106109935761099261124d565b5b906000526020600020015403610a1e5781600183805490506109b59190611739565b815481106109c6576109c561124d565b5b90600052602060002001548282815481106109e4576109e361124d565b5b906000526020600020018190555081805480610a0357610a0261176d565b5b60019003818190600052602060002001600090559055610a31565b8080610a299061179c565b915050610973565b508273ffffffffffffffffffffffffffffffffffffffff168273ffffffffffffffffffffffffffffffffffffffff16857f67a15eaf604567402ddcbde50e953364fe70fc34b74b032131fb1512bacaaa1460405160405180910390a450505050565b600060036000838152602001908152602001600020549050919050565b60046020528160005260406000208181548110610acc57600080fd5b90600052602060002001600091509150505481565b610ae9610b67565b600073ffffffffffffffffffffffffffffffffffffffff168173ffffffffffffffffffffffffffffffffffffffff1603610b5b5760006040517f1e4fbdf7000000000000000000000000000000000000000000000000000000008152600401610b52919061112f565b60405180910390fd5b610b6481610bee565b50565b610b6f610cb2565b73ffffffffffffffffffffffffffffffffffffffff16610b8d61067b565b73ffffffffffffffffffffffffffffffffffffffff1614610bec57610bb0610cb2565b6040517f118cdaa7000000000000000000000000000000000000000000000000000000008152600401610be3919061112f565b60405180910390fd5b565b60008060009054906101000a900473ffffffffffffffffffffffffffffffffffffffff169050816000806101000a81548173ffffffffffffffffffffffffffffffffffffffff021916908373ffffffffffffffffffffffffffffffffffffffff1602179055508173ffffffffffffffffffffffffffffffffffffffff168173ffffffffffffffffffffffffffffffffffffffff167f8be0079c531659141344cd1fd0a4f28419497f9722a3daafe3b4186f6b6457e060405160405180910390a35050565b600033905090565b6000604051905090565b600080fd5b600080fd5b6000601f19601f8301169050919050565b7f4e487b7100000000000000000000000000000000000000000000000000000000600052604160045260246000fd5b610d1782610cce565b810181811067ffffffffffffffff82111715610d3657610d35610cdf565b5b80604052505050565b6000610d49610cba565b9050610d558282610d0e565b919050565b600067ffffffffffffffff821115610d7557610d74610cdf565b5b602082029050919050565b600080fd5b6000819050919050565b610d9881610d85565b8114610da357600080fd5b50565b600081359050610db581610d8f565b92915050565b6000610dce610dc984610d5a565b610d3f565b90508060208402830185811115610de857610de7610d80565b5b835b81811015610e115780610dfd8882610da6565b845260208401935050602081019050610dea565b5050509392505050565b600082601f830112610e3057610e2f610cc9565b5b6002610e3d848285610dbb565b91505092915050565b600067ffffffffffffffff821115610e6157610e60610cdf565b5b602082029050919050565b6000610e7f610e7a84610e46565b610d3f565b90508060408402830185811115610e9957610e98610d80565b5b835b81811015610ec25780610eae8882610e1b565b845260208401935050604081019050610e9b565b5050509392505050565b600082601f830112610ee157610ee0610cc9565b5b6002610eee848285610e6c565b91505092915050565b600067ffffffffffffffff821115610f1257610f11610cdf565b5b602082029050919050565b6000610f30610f2b84610ef7565b610d3f565b90508060208402830185811115610f4a57610f49610d80565b5b835b81811015610f735780610f5f8882610da6565b845260208401935050602081019050610f4c565b5050509392505050565b600082601f830112610f9257610f91610cc9565b5b6001610f9f848285610f1d565b91505092915050565b6000806000806101208587031215610fc357610fc2610cc4565b5b6000610fd187828801610e1b565b9450506040610fe287828801610ecc565b93505060c0610ff387828801610e1b565b92505061010061100587828801610f7d565b91505092959194509250565b600073ffffffffffffffffffffffffffffffffffffffff82169050919050565b6000819050919050565b600061105661105161104c84611011565b611031565b611011565b9050919050565b60006110688261103b565b9050919050565b600061107a8261105d565b9050919050565b61108a8161106f565b82525050565b60006020820190506110a56000830184611081565b92915050565b6000602082840312156110c1576110c0610cc4565b5b60006110cf84828501610da6565b91505092915050565b60008115159050919050565b6110ed816110d8565b82525050565b600060208201905061110860008301846110e4565b92915050565b600061111982611011565b9050919050565b6111298161110e565b82525050565b60006020820190506111446000830184611120565b92915050565b61115381610d85565b82525050565b600060208201905061116e600083018461114a565b92915050565b61117d8161110e565b811461118857600080fd5b50565b60008135905061119a81611174565b92915050565b6000602082840312156111b6576111b5610cc4565b5b60006111c48482850161118b565b91505092915050565b600080604083850312156111e4576111e3610cc4565b5b60006111f285828601610da6565b92505060206112038582860161118b565b9150509250929050565b6000806040838503121561122457611223610cc4565b5b60006112328582860161118b565b925050602061124385828601610da6565b9150509250929050565b7f4e487b7100000000000000000000000000000000000000000000000000000000600052603260045260246000fd5b600082825260208201905092915050565b7f4d656c6f647920616c7265616479207265676973746572656400000000000000600082015250565b60006112c360198361127c565b91506112ce8261128d565b602082019050919050565b600060208201905081810360008301526112f2816112b6565b9050919050565b600060029050919050565b600081905092915050565b6000819050919050565b61132281610d85565b82525050565b60006113348383611319565b60208301905092915050565b6000602082019050919050565b611356816112f9565b6113608184611304565b925061136b8261130f565b8060005b8381101561139c5781516113838782611328565b965061138e83611340565b92505060018101905061136f565b505050505050565b600060029050919050565b600081905092915050565b6000819050919050565b600081905092915050565b6113d8816112f9565b6113e281846113c4565b92506113ed8261130f565b8060005b8381101561141e5781516114058782611328565b965061141083611340565b9250506001810190506113f1565b505050505050565b600061143283836113cf565b60408301905092915050565b6000602082019050919050565b611454816113a4565b61145e81846113af565b9250611469826113ba565b8060005b8381101561149a5781516114818782611426565b965061148c8361143e565b92505060018101905061146d565b505050505050565b600060019050919050565b600081905092915050565b6000819050919050565b6000602082019050919050565b6114d8816114a2565b6114e281846114ad565b92506114ed826114b8565b8060005b8381101561151e5781516115058782611328565b9650611510836114c2565b9250506001810190506114f1565b505050505050565b60006101208201905061153c600083018761134d565b611549604083018661144b565b61155660c083018561134d565b6115646101008301846114cf565b95945050505050565b611576816110d8565b811461158157600080fd5b50565b6000815190506115938161156d565b92915050565b6000602082840312156115af576115ae610cc4565b5b60006115bd84828501611584565b91505092915050565b7f496e76616c69642070726f6f6600000000000000000000000000000000000000600082015250565b60006115fc600d8361127c565b9150611607826115c6565b602082019050919050565b6000602082019050818103600083015261162b816115ef565b9050919050565b7f4e6f7420746865206f776e657200000000000000000000000000000000000000600082015250565b6000611668600d8361127c565b915061167382611632565b602082019050919050565b600060208201905081810360008301526116978161165b565b9050919050565b7f4e6577206f776e65722063616e6e6f74206265207a65726f2061646472657373600082015250565b60006116d460208361127c565b91506116df8261169e565b602082019050919050565b60006020820190508181036000830152611703816116c7565b9050919050565b7f4e487b7100000000000000000000000000000000000000000000000000000000600052601160045260246000fd5b600061174482610d85565b915061174f83610d85565b92508282039050818111156117675761176661170a565b5b92915050565b7f4e487b7100000000000000000000000000000000000000000000000000000000600052603160045260246000fd5b60006117a782610d85565b91507fffffffffffffffffffffffffffffffffffffffffffffffffffffffffffffffff82036117d9576117d861170a565b5b60018201905091905056fea26469706673582212200bc7dd8bcc2b9ac8a16064053415d914f7b4138fba878172bec8d97f6a79167e64736f6c63430008140033",
  "linkReferences": {},
  "deployedLinkReferences": {}
}